{
    "_format": "hh-sol-artifact-1",
    "contractName": "DBZGame",
    "sourceName": "contracts/DBZGame.sol",
    "abi": [
        {
            "inputs": [
                {
                    "internalType": "string[]",
                    "name": "characterNames",
                    "type": "string[]"
                },
                {
                    "internalType": "string[]",
                    "name": "characterImageURIs",
                    "type": "string[]"
                },
                {
                    "internalType": "uint256[]",
                    "name": "characterHp",
                    "type": "uint256[]"
                },
                {
                    "internalType": "uint256[]",
                    "name": "characterAttackDmg",
                    "type": "uint256[]"
                },
                {
                    "internalType": "string",
                    "name": "bossName",
                    "type": "string"
                },
                {
                    "internalType": "string",
                    "name": "bossImageURI",
                    "type": "string"
                },
                {
                    "internalType": "uint256",
                    "name": "bossHp",
                    "type": "uint256"
                },
                {
                    "internalType": "uint256",
                    "name": "bossAttackDamage",
                    "type": "uint256"
                }
            ],
            "stateMutability": "nonpayable",
            "type": "constructor"
        },
        {
            "anonymous": false,
            "inputs": [
                {
                    "indexed": true,
                    "internalType": "address",
                    "name": "owner",
                    "type": "address"
                },
                {
                    "indexed": true,
                    "internalType": "address",
                    "name": "approved",
                    "type": "address"
                },
                {
                    "indexed": true,
                    "internalType": "uint256",
                    "name": "tokenId",
                    "type": "uint256"
                }
            ],
            "name": "Approval",
            "type": "event"
        },
        {
            "anonymous": false,
            "inputs": [
                {
                    "indexed": true,
                    "internalType": "address",
                    "name": "owner",
                    "type": "address"
                },
                {
                    "indexed": true,
                    "internalType": "address",
                    "name": "operator",
                    "type": "address"
                },
                {
                    "indexed": false,
                    "internalType": "bool",
                    "name": "approved",
                    "type": "bool"
                }
            ],
            "name": "ApprovalForAll",
            "type": "event"
        },
        {
            "anonymous": false,
            "inputs": [
                {
                    "indexed": false,
                    "internalType": "address",
                    "name": "sender",
                    "type": "address"
                },
                {
                    "indexed": false,
                    "internalType": "uint256",
                    "name": "newBossHp",
                    "type": "uint256"
                },
                {
                    "indexed": false,
                    "internalType": "uint256",
                    "name": "newPlayerHp",
                    "type": "uint256"
                }
            ],
            "name": "AttackComplete",
            "type": "event"
        },
        {
            "anonymous": false,
            "inputs": [
                {
                    "indexed": false,
                    "internalType": "address",
                    "name": "sender",
                    "type": "address"
                },
                {
                    "indexed": false,
                    "internalType": "uint256",
                    "name": "tokenId",
                    "type": "uint256"
                },
                {
                    "indexed": false,
                    "internalType": "uint256",
                    "name": "characterIndex",
                    "type": "uint256"
                }
            ],
            "name": "CharacterNFTMinted",
            "type": "event"
        },
        {
            "anonymous": false,
            "inputs": [
                {
                    "indexed": true,
                    "internalType": "address",
                    "name": "from",
                    "type": "address"
                },
                {
                    "indexed": true,
                    "internalType": "address",
                    "name": "to",
                    "type": "address"
                },
                {
                    "indexed": true,
                    "internalType": "uint256",
                    "name": "tokenId",
                    "type": "uint256"
                }
            ],
            "name": "Transfer",
            "type": "event"
        },
        {
            "inputs": [
                {
                    "internalType": "address",
                    "name": "to",
                    "type": "address"
                },
                {
                    "internalType": "uint256",
                    "name": "tokenId",
                    "type": "uint256"
                }
            ],
            "name": "approve",
            "outputs": [],
            "stateMutability": "nonpayable",
            "type": "function"
        },
        {
            "inputs": [],
            "name": "attackBoss",
            "outputs": [],
            "stateMutability": "nonpayable",
            "type": "function"
        },
        {
            "inputs": [
                {
                    "internalType": "address",
                    "name": "owner",
                    "type": "address"
                }
            ],
            "name": "balanceOf",
            "outputs": [
                {
                    "internalType": "uint256",
                    "name": "",
                    "type": "uint256"
                }
            ],
            "stateMutability": "view",
            "type": "function"
        },
        {
            "inputs": [],
            "name": "bigBoss",
            "outputs": [
                {
                    "internalType": "string",
                    "name": "name",
                    "type": "string"
                },
                {
                    "internalType": "string",
                    "name": "imageURI",
                    "type": "string"
                },
                {
                    "internalType": "uint256",
                    "name": "hp",
                    "type": "uint256"
                },
                {
                    "internalType": "uint256",
                    "name": "maxHp",
                    "type": "uint256"
                },
                {
                    "internalType": "uint256",
                    "name": "attackDamage",
                    "type": "uint256"
                }
            ],
            "stateMutability": "view",
            "type": "function"
        },
        {
            "inputs": [],
            "name": "checkIfUserHasNFT",
            "outputs": [
                {
                    "components": [
                        {
                            "internalType": "uint256",
                            "name": "characterIndex",
                            "type": "uint256"
                        },
                        {
                            "internalType": "string",
                            "name": "name",
                            "type": "string"
                        },
                        {
                            "internalType": "string",
                            "name": "imageURI",
                            "type": "string"
                        },
                        {
                            "internalType": "uint256",
                            "name": "hp",
                            "type": "uint256"
                        },
                        {
                            "internalType": "uint256",
                            "name": "maxHp",
                            "type": "uint256"
                        },
                        {
                            "internalType": "uint256",
                            "name": "attackDamage",
                            "type": "uint256"
                        }
                    ],
                    "internalType": "struct DBZGame.CharacterAttributes",
                    "name": "",
                    "type": "tuple"
                }
            ],
            "stateMutability": "view",
            "type": "function"
        },
        {
            "inputs": [],
            "name": "getAllDefaultCharacters",
            "outputs": [
                {
                    "components": [
                        {
                            "internalType": "uint256",
                            "name": "characterIndex",
                            "type": "uint256"
                        },
                        {
                            "internalType": "string",
                            "name": "name",
                            "type": "string"
                        },
                        {
                            "internalType": "string",
                            "name": "imageURI",
                            "type": "string"
                        },
                        {
                            "internalType": "uint256",
                            "name": "hp",
                            "type": "uint256"
                        },
                        {
                            "internalType": "uint256",
                            "name": "maxHp",
                            "type": "uint256"
                        },
                        {
                            "internalType": "uint256",
                            "name": "attackDamage",
                            "type": "uint256"
                        }
                    ],
                    "internalType": "struct DBZGame.CharacterAttributes[]",
                    "name": "",
                    "type": "tuple[]"
                }
            ],
            "stateMutability": "view",
            "type": "function"
        },
        {
            "inputs": [
                {
                    "internalType": "uint256",
                    "name": "tokenId",
                    "type": "uint256"
                }
            ],
            "name": "getApproved",
            "outputs": [
                {
                    "internalType": "address",
                    "name": "",
                    "type": "address"
                }
            ],
            "stateMutability": "view",
            "type": "function"
        },
        {
            "inputs": [],
            "name": "getBigBoss",
            "outputs": [
                {
                    "components": [
                        {
                            "internalType": "string",
                            "name": "name",
                            "type": "string"
                        },
                        {
                            "internalType": "string",
                            "name": "imageURI",
                            "type": "string"
                        },
                        {
                            "internalType": "uint256",
                            "name": "hp",
                            "type": "uint256"
                        },
                        {
                            "internalType": "uint256",
                            "name": "maxHp",
                            "type": "uint256"
                        },
                        {
                            "internalType": "uint256",
                            "name": "attackDamage",
                            "type": "uint256"
                        }
                    ],
                    "internalType": "struct DBZGame.BigBoss",
                    "name": "",
                    "type": "tuple"
                }
            ],
            "stateMutability": "view",
            "type": "function"
        },
        {
            "inputs": [
                {
                    "internalType": "address",
                    "name": "owner",
                    "type": "address"
                },
                {
                    "internalType": "address",
                    "name": "operator",
                    "type": "address"
                }
            ],
            "name": "isApprovedForAll",
            "outputs": [
                {
                    "internalType": "bool",
                    "name": "",
                    "type": "bool"
                }
            ],
            "stateMutability": "view",
            "type": "function"
        },
        {
            "inputs": [
                {
                    "internalType": "uint256",
                    "name": "_characterIndex",
                    "type": "uint256"
                }
            ],
            "name": "mintCharacterNFT",
            "outputs": [],
            "stateMutability": "nonpayable",
            "type": "function"
        },
        {
            "inputs": [],
            "name": "name",
            "outputs": [
                {
                    "internalType": "string",
                    "name": "",
                    "type": "string"
                }
            ],
            "stateMutability": "view",
            "type": "function"
        },
        {
            "inputs": [
                {
                    "internalType": "uint256",
                    "name": "",
                    "type": "uint256"
                }
            ],
            "name": "nftHolderAttributes",
            "outputs": [
                {
                    "internalType": "uint256",
                    "name": "characterIndex",
                    "type": "uint256"
                },
                {
                    "internalType": "string",
                    "name": "name",
                    "type": "string"
                },
                {
                    "internalType": "string",
                    "name": "imageURI",
                    "type": "string"
                },
                {
                    "internalType": "uint256",
                    "name": "hp",
                    "type": "uint256"
                },
                {
                    "internalType": "uint256",
                    "name": "maxHp",
                    "type": "uint256"
                },
                {
                    "internalType": "uint256",
                    "name": "attackDamage",
                    "type": "uint256"
                }
            ],
            "stateMutability": "view",
            "type": "function"
        },
        {
            "inputs": [
                {
                    "internalType": "address",
                    "name": "",
                    "type": "address"
                }
            ],
            "name": "nftHolders",
            "outputs": [
                {
                    "internalType": "uint256",
                    "name": "",
                    "type": "uint256"
                }
            ],
            "stateMutability": "view",
            "type": "function"
        },
        {
            "inputs": [
                {
                    "internalType": "uint256",
                    "name": "tokenId",
                    "type": "uint256"
                }
            ],
            "name": "ownerOf",
            "outputs": [
                {
                    "internalType": "address",
                    "name": "",
                    "type": "address"
                }
            ],
            "stateMutability": "view",
            "type": "function"
        },
        {
            "inputs": [
                {
                    "internalType": "address",
                    "name": "from",
                    "type": "address"
                },
                {
                    "internalType": "address",
                    "name": "to",
                    "type": "address"
                },
                {
                    "internalType": "uint256",
                    "name": "tokenId",
                    "type": "uint256"
                }
            ],
            "name": "safeTransferFrom",
            "outputs": [],
            "stateMutability": "nonpayable",
            "type": "function"
        },
        {
            "inputs": [
                {
                    "internalType": "address",
                    "name": "from",
                    "type": "address"
                },
                {
                    "internalType": "address",
                    "name": "to",
                    "type": "address"
                },
                {
                    "internalType": "uint256",
                    "name": "tokenId",
                    "type": "uint256"
                },
                {
                    "internalType": "bytes",
                    "name": "data",
                    "type": "bytes"
                }
            ],
            "name": "safeTransferFrom",
            "outputs": [],
            "stateMutability": "nonpayable",
            "type": "function"
        },
        {
            "inputs": [
                {
                    "internalType": "address",
                    "name": "operator",
                    "type": "address"
                },
                {
                    "internalType": "bool",
                    "name": "approved",
                    "type": "bool"
                }
            ],
            "name": "setApprovalForAll",
            "outputs": [],
            "stateMutability": "nonpayable",
            "type": "function"
        },
        {
            "inputs": [
                {
                    "internalType": "bytes4",
                    "name": "interfaceId",
                    "type": "bytes4"
                }
            ],
            "name": "supportsInterface",
            "outputs": [
                {
                    "internalType": "bool",
                    "name": "",
                    "type": "bool"
                }
            ],
            "stateMutability": "view",
            "type": "function"
        },
        {
            "inputs": [],
            "name": "symbol",
            "outputs": [
                {
                    "internalType": "string",
                    "name": "",
                    "type": "string"
                }
            ],
            "stateMutability": "view",
            "type": "function"
        },
        {
            "inputs": [
                {
                    "internalType": "uint256",
                    "name": "_tokenId",
                    "type": "uint256"
                }
            ],
            "name": "tokenURI",
            "outputs": [
                {
                    "internalType": "string",
                    "name": "",
                    "type": "string"
                }
            ],
            "stateMutability": "view",
            "type": "function"
        },
        {
            "inputs": [
                {
                    "internalType": "address",
                    "name": "from",
                    "type": "address"
                },
                {
                    "internalType": "address",
                    "name": "to",
                    "type": "address"
                },
                {
                    "internalType": "uint256",
                    "name": "tokenId",
                    "type": "uint256"
                }
            ],
            "name": "transferFrom",
            "outputs": [],
            "stateMutability": "nonpayable",
            "type": "function"
        }
    ],
    "bytecode": "0x60806040523480156200001157600080fd5b50604051620055fb380380620055fb833981810160405281019062000037919062000b6f565b6040518060400160405280600681526020017f4865726f657300000000000000000000000000000000000000000000000000008152506040518060400160405280600481526020017f4845524f000000000000000000000000000000000000000000000000000000008152508160009080519060200190620000bb92919062000715565b508060019080519060200190620000d492919062000715565b5050506040518060a0016040528085815260200184815260200183815260200183815260200182815250600960008201518160000190805190602001906200011e92919062000715565b5060208201518160010190805190602001906200013d92919062000715565b50604082015181600201556060820151816003015560808201518160040155905050620002c06040518060600160405280602a8152602001620055d1602a9139600960000180546200018f9062000d21565b80601f0160208091040260200160405190810160405280929190818152602001828054620001bd9062000d21565b80156200020e5780601f10620001e2576101008083540402835291602001916200020e565b820191906000526020600020905b815481529060010190602001808311620001f057829003601f168201915b5050505050600960020154600960010180546200022b9062000d21565b80601f0160208091040260200160405190810160405280929190818152602001828054620002599062000d21565b8015620002aa5780601f106200027e57610100808354040283529160200191620002aa565b820191906000526020600020905b8154815290600101906020018083116200028c57829003601f168201915b50505050506200062a60201b62001ada1760201c565b60005b8851811015620006045760076040518060c001604052808381526020018b8481518110620002f657620002f562000d57565b5b602002602001015181526020018a848151811062000319576200031862000d57565b5b602002602001015181526020018984815181106200033c576200033b62000d57565b5b602002602001015181526020018984815181106200035f576200035e62000d57565b5b6020026020010151815260200188848151811062000382576200038162000d57565b5b60200260200101518152509080600181540180825580915050600190039060005260206000209060060201600090919091909150600082015181600001556020820151816001019080519060200190620003de92919062000715565b506040820151816002019080519060200190620003fd92919062000715565b50606082015181600301556080820151816004015560a08201518160050155505060006007828154811062000437576200043662000d57565b5b90600052602060002090600602016040518060c0016040529081600082015481526020016001820180546200046c9062000d21565b80601f01602080910402602001604051908101604052809291908181526020018280546200049a9062000d21565b8015620004eb5780601f10620004bf57610100808354040283529160200191620004eb565b820191906000526020600020905b815481529060010190602001808311620004cd57829003601f168201915b50505050508152602001600282018054620005069062000d21565b80601f0160208091040260200160405190810160405280929190818152602001828054620005349062000d21565b8015620005855780601f10620005595761010080835404028352916020019162000585565b820191906000526020600020905b8154815290600101906020018083116200056757829003601f168201915b5050505050815260200160038201548152602001600482015481526020016005820154815250509050620005ec604051806060016040528060258152602001620055ac602591398260200151836060015184604001516200062a60201b62001ada1760201c565b50600181620005fc919062000db5565b9050620002c3565b506200061c6006620006d660201b62001b7c1760201c565b505050505050505062000ee2565b620006d08484848460405160240162000647949392919062000e80565b6040516020818303038152906040527f8d142cdd000000000000000000000000000000000000000000000000000000007bffffffffffffffffffffffffffffffffffffffffffffffffffffffff19166020820180517bffffffffffffffffffffffffffffffffffffffffffffffffffffffff8381831617835250505050620006ec60201b60201c565b50505050565b6001816000016000828254019250508190555050565b60008151905060006a636f6e736f6c652e6c6f679050602083016000808483855afa5050505050565b828054620007239062000d21565b90600052602060002090601f01602090048101928262000747576000855562000793565b82601f106200076257805160ff191683800117855562000793565b8280016001018555821562000793579182015b828111156200079257825182559160200191906001019062000775565b5b509050620007a29190620007a6565b5090565b5b80821115620007c1576000816000905550600101620007a7565b5090565b6000604051905090565b600080fd5b600080fd5b600080fd5b6000601f19601f8301169050919050565b7f4e487b7100000000000000000000000000000000000000000000000000000000600052604160045260246000fd5b6200082982620007de565b810181811067ffffffffffffffff821117156200084b576200084a620007ef565b5b80604052505050565b600062000860620007c5565b90506200086e82826200081e565b919050565b600067ffffffffffffffff821115620008915762000890620007ef565b5b602082029050602081019050919050565b600080fd5b600080fd5b600067ffffffffffffffff821115620008ca57620008c9620007ef565b5b620008d582620007de565b9050602081019050919050565b60005b8381101562000902578082015181840152602081019050620008e5565b8381111562000912576000848401525b50505050565b60006200092f6200092984620008ac565b62000854565b9050828152602081018484840111156200094e576200094d620008a7565b5b6200095b848285620008e2565b509392505050565b600082601f8301126200097b576200097a620007d9565b5b81516200098d84826020860162000918565b91505092915050565b6000620009ad620009a78462000873565b62000854565b90508083825260208201905060208402830185811115620009d357620009d2620008a2565b5b835b8181101562000a2157805167ffffffffffffffff811115620009fc57620009fb620007d9565b5b80860162000a0b898262000963565b85526020850194505050602081019050620009d5565b5050509392505050565b600082601f83011262000a435762000a42620007d9565b5b815162000a5584826020860162000996565b91505092915050565b600067ffffffffffffffff82111562000a7c5762000a7b620007ef565b5b602082029050602081019050919050565b6000819050919050565b62000aa28162000a8d565b811462000aae57600080fd5b50565b60008151905062000ac28162000a97565b92915050565b600062000adf62000ad98462000a5e565b62000854565b9050808382526020820190506020840283018581111562000b055762000b04620008a2565b5b835b8181101562000b32578062000b1d888262000ab1565b84526020840193505060208101905062000b07565b5050509392505050565b600082601f83011262000b545762000b53620007d9565b5b815162000b6684826020860162000ac8565b91505092915050565b600080600080600080600080610100898b03121562000b935762000b92620007cf565b5b600089015167ffffffffffffffff81111562000bb45762000bb3620007d4565b5b62000bc28b828c0162000a2b565b985050602089015167ffffffffffffffff81111562000be65762000be5620007d4565b5b62000bf48b828c0162000a2b565b975050604089015167ffffffffffffffff81111562000c185762000c17620007d4565b5b62000c268b828c0162000b3c565b965050606089015167ffffffffffffffff81111562000c4a5762000c49620007d4565b5b62000c588b828c0162000b3c565b955050608089015167ffffffffffffffff81111562000c7c5762000c7b620007d4565b5b62000c8a8b828c0162000963565b94505060a089015167ffffffffffffffff81111562000cae5762000cad620007d4565b5b62000cbc8b828c0162000963565b93505060c062000ccf8b828c0162000ab1565b92505060e062000ce28b828c0162000ab1565b9150509295985092959890939650565b7f4e487b7100000000000000000000000000000000000000000000000000000000600052602260045260246000fd5b6000600282049050600182168062000d3a57607f821691505b6020821081141562000d515762000d5062000cf2565b5b50919050565b7f4e487b7100000000000000000000000000000000000000000000000000000000600052603260045260246000fd5b7f4e487b7100000000000000000000000000000000000000000000000000000000600052601160045260246000fd5b600062000dc28262000a8d565b915062000dcf8362000a8d565b9250827fffffffffffffffffffffffffffffffffffffffffffffffffffffffffffffffff0382111562000e075762000e0662000d86565b5b828201905092915050565b600081519050919050565b600082825260208201905092915050565b600062000e3b8262000e12565b62000e47818562000e1d565b935062000e59818560208601620008e2565b62000e6481620007de565b840191505092915050565b62000e7a8162000a8d565b82525050565b6000608082019050818103600083015262000e9c818762000e2e565b9050818103602083015262000eb2818662000e2e565b905062000ec3604083018562000e6f565b818103606083015262000ed7818462000e2e565b905095945050505050565b6146ba8062000ef26000396000f3fe608060405234801561001057600080fd5b50600436106101375760003560e01c806395d89b41116100b8578063b953084e1161007c578063b953084e14610369578063c87b56dd14610387578063c8cf27f4146103b7578063d4f24c5b146103d5578063e985e9c5146103df578063f8b81ef71461040f57610137565b806395d89b41146102bc57806398da4c95146102da578063a22cb4651461030f578063a9c326791461032b578063b88d4fde1461034d57610137565b806323b872dd116100ff57806323b872dd146101f457806342842e0e146102105780636352211e1461022c57806370a082311461025c5780637df124a11461028c57610137565b806301ffc9a71461013c5780630665f9611461016c57806306fdde031461018a578063081812fc146101a8578063095ea7b3146101d8575b600080fd5b61015660048036038101906101519190612ca3565b61042b565b6040516101639190612ceb565b60405180910390f35b61017461050d565b6040516101819190612e35565b60405180910390f35b610192610669565b60405161019f9190612ea1565b60405180910390f35b6101c260048036038101906101bd9190612eef565b6106fb565b6040516101cf9190612f5d565b60405180910390f35b6101f260048036038101906101ed9190612fa4565b610741565b005b61020e60048036038101906102099190612fe4565b610859565b005b61022a60048036038101906102259190612fe4565b6108b9565b005b61024660048036038101906102419190612eef565b6108d9565b6040516102539190612f5d565b60405180910390f35b61027660048036038101906102719190613037565b61098b565b6040516102839190613073565b60405180910390f35b6102a660048036038101906102a19190613037565b610a43565b6040516102b39190613073565b60405180910390f35b6102c4610a5b565b6040516102d19190612ea1565b60405180910390f35b6102f460048036038101906102ef9190612eef565b610aed565b6040516103069695949392919061308e565b60405180910390f35b61032960048036038101906103249190613129565b610c39565b005b610333610c4f565b604051610344959493929190613169565b60405180910390f35b610367600480360381019061036291906132ff565b610d83565b005b610371610de5565b60405161037e91906134d4565b60405180910390f35b6103a1600480360381019061039c9190612eef565b610f90565b6040516103ae9190612ea1565b60405180910390f35b6103bf6111ab565b6040516103cc9190613586565b60405180910390f35b6103dd611383565b005b6103f960048036038101906103f491906135a8565b611710565b6040516104069190612ceb565b60405180910390f35b61042960048036038101906104249190612eef565b6117a4565b005b60007f80ac58cd000000000000000000000000000000000000000000000000000000007bffffffffffffffffffffffffffffffffffffffffffffffffffffffff1916827bffffffffffffffffffffffffffffffffffffffffffffffffffffffff191614806104f657507f5b5e139f000000000000000000000000000000000000000000000000000000007bffffffffffffffffffffffffffffffffffffffffffffffffffffffff1916827bffffffffffffffffffffffffffffffffffffffffffffffffffffffff1916145b80610506575061050582611b92565b5b9050919050565b610515612b2f565b60096040518060a001604052908160008201805461053290613617565b80601f016020809104026020016040519081016040528092919081815260200182805461055e90613617565b80156105ab5780601f10610580576101008083540402835291602001916105ab565b820191906000526020600020905b81548152906001019060200180831161058e57829003601f168201915b505050505081526020016001820180546105c490613617565b80601f01602080910402602001604051908101604052809291908181526020018280546105f090613617565b801561063d5780601f106106125761010080835404028352916020019161063d565b820191906000526020600020905b81548152906001019060200180831161062057829003601f168201915b505050505081526020016002820154815260200160038201548152602001600482015481525050905090565b60606000805461067890613617565b80601f01602080910402602001604051908101604052809291908181526020018280546106a490613617565b80156106f15780601f106106c6576101008083540402835291602001916106f1565b820191906000526020600020905b8154815290600101906020018083116106d457829003601f168201915b5050505050905090565b600061070682611bfc565b6004600083815260200190815260200160002060009054906101000a900473ffffffffffffffffffffffffffffffffffffffff169050919050565b600061074c826108d9565b90508073ffffffffffffffffffffffffffffffffffffffff168373ffffffffffffffffffffffffffffffffffffffff1614156107bd576040517f08c379a00000000000000000000000000000000000000000000000000000000081526004016107b4906136bb565b60405180910390fd5b8073ffffffffffffffffffffffffffffffffffffffff166107dc611c47565b73ffffffffffffffffffffffffffffffffffffffff16148061080b575061080a81610805611c47565b611710565b5b61084a576040517f08c379a00000000000000000000000000000000000000000000000000000000081526004016108419061374d565b60405180910390fd5b6108548383611c4f565b505050565b61086a610864611c47565b82611d08565b6108a9576040517f08c379a00000000000000000000000000000000000000000000000000000000081526004016108a0906137df565b60405180910390fd5b6108b4838383611d9d565b505050565b6108d483838360405180602001604052806000815250610d83565b505050565b6000806002600084815260200190815260200160002060009054906101000a900473ffffffffffffffffffffffffffffffffffffffff169050600073ffffffffffffffffffffffffffffffffffffffff168173ffffffffffffffffffffffffffffffffffffffff161415610982576040517f08c379a00000000000000000000000000000000000000000000000000000000081526004016109799061384b565b60405180910390fd5b80915050919050565b60008073ffffffffffffffffffffffffffffffffffffffff168273ffffffffffffffffffffffffffffffffffffffff1614156109fc576040517f08c379a00000000000000000000000000000000000000000000000000000000081526004016109f3906138dd565b60405180910390fd5b600360008373ffffffffffffffffffffffffffffffffffffffff1673ffffffffffffffffffffffffffffffffffffffff168152602001908152602001600020549050919050565b600e6020528060005260406000206000915090505481565b606060018054610a6a90613617565b80601f0160208091040260200160405190810160405280929190818152602001828054610a9690613617565b8015610ae35780601f10610ab857610100808354040283529160200191610ae3565b820191906000526020600020905b815481529060010190602001808311610ac657829003601f168201915b5050505050905090565b6008602052806000526040600020600091509050806000015490806001018054610b1690613617565b80601f0160208091040260200160405190810160405280929190818152602001828054610b4290613617565b8015610b8f5780601f10610b6457610100808354040283529160200191610b8f565b820191906000526020600020905b815481529060010190602001808311610b7257829003601f168201915b505050505090806002018054610ba490613617565b80601f0160208091040260200160405190810160405280929190818152602001828054610bd090613617565b8015610c1d5780601f10610bf257610100808354040283529160200191610c1d565b820191906000526020600020905b815481529060010190602001808311610c0057829003601f168201915b5050505050908060030154908060040154908060050154905086565b610c4b610c44611c47565b8383612004565b5050565b6009806000018054610c6090613617565b80601f0160208091040260200160405190810160405280929190818152602001828054610c8c90613617565b8015610cd95780601f10610cae57610100808354040283529160200191610cd9565b820191906000526020600020905b815481529060010190602001808311610cbc57829003601f168201915b505050505090806001018054610cee90613617565b80601f0160208091040260200160405190810160405280929190818152602001828054610d1a90613617565b8015610d675780601f10610d3c57610100808354040283529160200191610d67565b820191906000526020600020905b815481529060010190602001808311610d4a57829003601f168201915b5050505050908060020154908060030154908060040154905085565b610d94610d8e611c47565b83611d08565b610dd3576040517f08c379a0000000000000000000000000000000000000000000000000000000008152600401610dca906137df565b60405180910390fd5b610ddf84848484612171565b50505050565b60606007805480602002602001604051908101604052809291908181526020016000905b82821015610f8757838290600052602060002090600602016040518060c001604052908160008201548152602001600182018054610e4690613617565b80601f0160208091040260200160405190810160405280929190818152602001828054610e7290613617565b8015610ebf5780601f10610e9457610100808354040283529160200191610ebf565b820191906000526020600020905b815481529060010190602001808311610ea257829003601f168201915b50505050508152602001600282018054610ed890613617565b80601f0160208091040260200160405190810160405280929190818152602001828054610f0490613617565b8015610f515780601f10610f2657610100808354040283529160200191610f51565b820191906000526020600020905b815481529060010190602001808311610f3457829003601f168201915b50505050508152602001600382015481526020016004820154815260200160058201548152505081526020019060010190610e09565b50505050905090565b60606000600860008481526020019081526020016000206040518060c001604052908160008201548152602001600182018054610fcc90613617565b80601f0160208091040260200160405190810160405280929190818152602001828054610ff890613617565b80156110455780601f1061101a57610100808354040283529160200191611045565b820191906000526020600020905b81548152906001019060200180831161102857829003601f168201915b5050505050815260200160028201805461105e90613617565b80601f016020809104026020016040519081016040528092919081815260200182805461108a90613617565b80156110d75780601f106110ac576101008083540402835291602001916110d7565b820191906000526020600020905b8154815290600101906020018083116110ba57829003601f168201915b5050505050815260200160038201548152602001600482015481526020016005820154815250509050600061110f82606001516121cd565b9050600061112083608001516121cd565b905060006111318460a001516121cd565b905060006111778560200151611146896121cd565b876040015187878760405160200161116396959493929190613c0b565b60405160208183030381529060405261232e565b905060008160405160200161118c9190613cfc565b6040516020818303038152906040529050809650505050505050919050565b6111b3612b5e565b6000600e60003373ffffffffffffffffffffffffffffffffffffffff1673ffffffffffffffffffffffffffffffffffffffff168152602001908152602001600020549050600081111561137257600860008281526020019081526020016000206040518060c00160405290816000820154815260200160018201805461123890613617565b80601f016020809104026020016040519081016040528092919081815260200182805461126490613617565b80156112b15780601f10611286576101008083540402835291602001916112b1565b820191906000526020600020905b81548152906001019060200180831161129457829003601f168201915b505050505081526020016002820180546112ca90613617565b80601f01602080910402602001604051908101604052809291908181526020018280546112f690613617565b80156113435780601f1061131857610100808354040283529160200191611343565b820191906000526020600020905b81548152906001019060200180831161132657829003601f168201915b505050505081526020016003820154815260200160048201548152602001600582015481525050915050611380565b61137a612b5e565b80925050505b90565b6000600e60003373ffffffffffffffffffffffffffffffffffffffff1673ffffffffffffffffffffffffffffffffffffffff16815260200190815260200160002054905060006008600083815260200190815260200160002090506114966040518060600160405280603c8152602001614649603c913982600101805461140990613617565b80601f016020809104026020016040519081016040528092919081815260200182805461143590613617565b80156114825780601f1061145757610100808354040283529160200191611482565b820191906000526020600020905b81548152906001019060200180831161146557829003601f168201915b5050505050836003015484600501546124a7565b61156e6040518060400160405280601b81526020017f426f73732025732068617320257320485020616e642025732041440000000000815250600960000180546114df90613617565b80601f016020809104026020016040519081016040528092919081815260200182805461150b90613617565b80156115585780601f1061152d57610100808354040283529160200191611558565b820191906000526020600020905b81548152906001019060200180831161153b57829003601f168201915b50505050506009600201546009600401546124a7565b60008160030154116115b5576040517f08c379a00000000000000000000000000000000000000000000000000000000081526004016115ac90613d90565b60405180910390fd5b6000600960020154116115fd576040517f08c379a00000000000000000000000000000000000000000000000000000000081526004016115f490613e22565b60405180910390fd5b8060050154600960020154101561161e57600060096002018190555061163d565b80600501546009600201546116339190613e71565b6009600201819055505b6009600401548160030154101561165d576000816003018190555061167b565b60096004015481600301546116729190613e71565b81600301819055505b6116a260405180606001604052806025815260200161458e60259139600960020154612549565b6116c86040518060600160405280602881526020016145f3602891398260030154612549565b7f32bd565ee3f2cb5ddd742bbecd6048d3e9abe90b3827a40c2b72d232e71e3c9d33600960020154836003015460405161170493929190613ea5565b60405180910390a15050565b6000600560008473ffffffffffffffffffffffffffffffffffffffff1673ffffffffffffffffffffffffffffffffffffffff16815260200190815260200160002060008373ffffffffffffffffffffffffffffffffffffffff1673ffffffffffffffffffffffffffffffffffffffff16815260200190815260200160002060009054906101000a900460ff16905092915050565b60006117b060066125e5565b90506117bc33826125f3565b6040518060c00160405280838152602001600784815481106117e1576117e0613edc565b5b906000526020600020906006020160010180546117fd90613617565b80601f016020809104026020016040519081016040528092919081815260200182805461182990613617565b80156118765780601f1061184b57610100808354040283529160200191611876565b820191906000526020600020905b81548152906001019060200180831161185957829003601f168201915b505050505081526020016007848154811061189457611893613edc565b5b906000526020600020906006020160020180546118b090613617565b80601f01602080910402602001604051908101604052809291908181526020018280546118dc90613617565b80156119295780601f106118fe57610100808354040283529160200191611929565b820191906000526020600020905b81548152906001019060200180831161190c57829003601f168201915b505050505081526020016007848154811061194757611946613edc565b5b90600052602060002090600602016003015481526020016007848154811061197257611971613edc565b5b90600052602060002090600602016004015481526020016007848154811061199d5761199c613edc565b5b906000526020600020906006020160050154815250600860008381526020019081526020016000206000820151816000015560208201518160010190805190602001906119eb929190612b94565b506040820151816002019080519060200190611a08929190612b94565b50606082015181600301556080820151816004015560a08201518160050155905050611a4d6040518060600160405280602e815260200161461b602e91398284612611565b80600e60003373ffffffffffffffffffffffffffffffffffffffff1673ffffffffffffffffffffffffffffffffffffffff16815260200190815260200160002081905550611a9b6006611b7c565b7f4bc303fd457a97b4691b9af582ce71868a3d258638c8d4f8c60988a0f0bfb8cd338284604051611ace93929190613ea5565b60405180910390a15050565b611b7684848484604051602401611af49493929190613f0b565b6040516020818303038152906040527f8d142cdd000000000000000000000000000000000000000000000000000000007bffffffffffffffffffffffffffffffffffffffffffffffffffffffff19166020820180517bffffffffffffffffffffffffffffffffffffffffffffffffffffffff83818316178352505050506126b0565b50505050565b6001816000016000828254019250508190555050565b60007f01ffc9a7000000000000000000000000000000000000000000000000000000007bffffffffffffffffffffffffffffffffffffffffffffffffffffffff1916827bffffffffffffffffffffffffffffffffffffffffffffffffffffffff1916149050919050565b611c05816126d9565b611c44576040517f08c379a0000000000000000000000000000000000000000000000000000000008152600401611c3b9061384b565b60405180910390fd5b50565b600033905090565b816004600083815260200190815260200160002060006101000a81548173ffffffffffffffffffffffffffffffffffffffff021916908373ffffffffffffffffffffffffffffffffffffffff160217905550808273ffffffffffffffffffffffffffffffffffffffff16611cc2836108d9565b73ffffffffffffffffffffffffffffffffffffffff167f8c5be1e5ebec7d5bd14f71427d1e84f3dd0314c0f7b2291e5b200ac8c7c3b92560405160405180910390a45050565b600080611d14836108d9565b90508073ffffffffffffffffffffffffffffffffffffffff168473ffffffffffffffffffffffffffffffffffffffff161480611d565750611d558185611710565b5b80611d9457508373ffffffffffffffffffffffffffffffffffffffff16611d7c846106fb565b73ffffffffffffffffffffffffffffffffffffffff16145b91505092915050565b8273ffffffffffffffffffffffffffffffffffffffff16611dbd826108d9565b73ffffffffffffffffffffffffffffffffffffffff1614611e13576040517f08c379a0000000000000000000000000000000000000000000000000000000008152600401611e0a90613fd7565b60405180910390fd5b600073ffffffffffffffffffffffffffffffffffffffff168273ffffffffffffffffffffffffffffffffffffffff161415611e83576040517f08c379a0000000000000000000000000000000000000000000000000000000008152600401611e7a90614069565b60405180910390fd5b611e8e838383612745565b611e99600082611c4f565b6001600360008573ffffffffffffffffffffffffffffffffffffffff1673ffffffffffffffffffffffffffffffffffffffff1681526020019081526020016000206000828254611ee99190613e71565b925050819055506001600360008473ffffffffffffffffffffffffffffffffffffffff1673ffffffffffffffffffffffffffffffffffffffff1681526020019081526020016000206000828254611f409190614089565b92505081905550816002600083815260200190815260200160002060006101000a81548173ffffffffffffffffffffffffffffffffffffffff021916908373ffffffffffffffffffffffffffffffffffffffff160217905550808273ffffffffffffffffffffffffffffffffffffffff168473ffffffffffffffffffffffffffffffffffffffff167fddf252ad1be2c89b69c2b068fc378daa952ba7f163c4a11628f55a4df523b3ef60405160405180910390a4611fff83838361274a565b505050565b8173ffffffffffffffffffffffffffffffffffffffff168373ffffffffffffffffffffffffffffffffffffffff161415612073576040517f08c379a000000000000000000000000000000000000000000000000000000000815260040161206a9061412b565b60405180910390fd5b80600560008573ffffffffffffffffffffffffffffffffffffffff1673ffffffffffffffffffffffffffffffffffffffff16815260200190815260200160002060008473ffffffffffffffffffffffffffffffffffffffff1673ffffffffffffffffffffffffffffffffffffffff16815260200190815260200160002060006101000a81548160ff0219169083151502179055508173ffffffffffffffffffffffffffffffffffffffff168373ffffffffffffffffffffffffffffffffffffffff167f17307eab39ab6107e8899845ad3d59bd9653f200f220920489ca2b5937696c31836040516121649190612ceb565b60405180910390a3505050565b61217c848484611d9d565b6121888484848461274f565b6121c7576040517f08c379a00000000000000000000000000000000000000000000000000000000081526004016121be906141bd565b60405180910390fd5b50505050565b60606000821415612215576040518060400160405280600181526020017f30000000000000000000000000000000000000000000000000000000000000008152509050612329565b600082905060005b60008214612247578080612230906141dd565b915050600a826122409190614255565b915061221d565b60008167ffffffffffffffff811115612263576122626131d4565b5b6040519080825280601f01601f1916602001820160405280156122955781602001600182028036833780820191505090505b5090505b60008514612322576001826122ae9190613e71565b9150600a856122bd9190614286565b60306122c99190614089565b60f81b8183815181106122df576122de613edc565b5b60200101907effffffffffffffffffffffffffffffffffffffffffffffffffffffffffffff1916908160001a905350600a8561231b9190614255565b9450612299565b8093505050505b919050565b6060600082511415612351576040518060200160405280600081525090506124a2565b60006040518060600160405280604081526020016145b360409139905060006003600285516123809190614089565b61238a9190614255565b600461239691906142b7565b905060006020826123a79190614089565b67ffffffffffffffff8111156123c0576123bf6131d4565b5b6040519080825280601f01601f1916602001820160405280156123f25781602001600182028036833780820191505090505b509050818152600183018586518101602084015b81831015612461576003830192508251603f8160121c168501518253600182019150603f81600c1c168501518253600182019150603f8160061c168501518253600182019150603f8116850151825360018201915050612406565b60038951066001811461247b576002811461248b57612496565b613d3d60f01b6002830352612496565b603d60f81b60018303525b50505050508093505050505b919050565b612543848484846040516024016124c19493929190614311565b6040516020818303038152906040527fd5cf17d0000000000000000000000000000000000000000000000000000000007bffffffffffffffffffffffffffffffffffffffffffffffffffffffff19166020820180517bffffffffffffffffffffffffffffffffffffffffffffffffffffffff83818316178352505050506126b0565b50505050565b6125e1828260405160240161255f929190614364565b6040516020818303038152906040527f9710a9d0000000000000000000000000000000000000000000000000000000007bffffffffffffffffffffffffffffffffffffffffffffffffffffffff19166020820180517bffffffffffffffffffffffffffffffffffffffffffffffffffffffff83818316178352505050506126b0565b5050565b600081600001549050919050565b61260d8282604051806020016040528060008152506128d7565b5050565b6126ab83838360405160240161262993929190614394565b6040516020818303038152906040527f969cdd03000000000000000000000000000000000000000000000000000000007bffffffffffffffffffffffffffffffffffffffffffffffffffffffff19166020820180517bffffffffffffffffffffffffffffffffffffffffffffffffffffffff83818316178352505050506126b0565b505050565b60008151905060006a636f6e736f6c652e6c6f679050602083016000808483855afa5050505050565b60008073ffffffffffffffffffffffffffffffffffffffff166002600084815260200190815260200160002060009054906101000a900473ffffffffffffffffffffffffffffffffffffffff1673ffffffffffffffffffffffffffffffffffffffff1614159050919050565b505050565b505050565b60006127708473ffffffffffffffffffffffffffffffffffffffff16612932565b156128ca578373ffffffffffffffffffffffffffffffffffffffff1663150b7a02612799611c47565b8786866040518563ffffffff1660e01b81526004016127bb9493929190614427565b6020604051808303816000875af19250505080156127f757506040513d601f19601f820116820180604052508101906127f49190614488565b60015b61287a573d8060008114612827576040519150601f19603f3d011682016040523d82523d6000602084013e61282c565b606091505b50600081511415612872576040517f08c379a0000000000000000000000000000000000000000000000000000000008152600401612869906141bd565b60405180910390fd5b805181602001fd5b63150b7a0260e01b7bffffffffffffffffffffffffffffffffffffffffffffffffffffffff1916817bffffffffffffffffffffffffffffffffffffffffffffffffffffffff1916149150506128cf565b600190505b949350505050565b6128e18383612955565b6128ee600084848461274f565b61292d576040517f08c379a0000000000000000000000000000000000000000000000000000000008152600401612924906141bd565b60405180910390fd5b505050565b6000808273ffffffffffffffffffffffffffffffffffffffff163b119050919050565b600073ffffffffffffffffffffffffffffffffffffffff168273ffffffffffffffffffffffffffffffffffffffff1614156129c5576040517f08c379a00000000000000000000000000000000000000000000000000000000081526004016129bc90614501565b60405180910390fd5b6129ce816126d9565b15612a0e576040517f08c379a0000000000000000000000000000000000000000000000000000000008152600401612a059061456d565b60405180910390fd5b612a1a60008383612745565b6001600360008473ffffffffffffffffffffffffffffffffffffffff1673ffffffffffffffffffffffffffffffffffffffff1681526020019081526020016000206000828254612a6a9190614089565b92505081905550816002600083815260200190815260200160002060006101000a81548173ffffffffffffffffffffffffffffffffffffffff021916908373ffffffffffffffffffffffffffffffffffffffff160217905550808273ffffffffffffffffffffffffffffffffffffffff16600073ffffffffffffffffffffffffffffffffffffffff167fddf252ad1be2c89b69c2b068fc378daa952ba7f163c4a11628f55a4df523b3ef60405160405180910390a4612b2b6000838361274a565b5050565b6040518060a0016040528060608152602001606081526020016000815260200160008152602001600081525090565b6040518060c001604052806000815260200160608152602001606081526020016000815260200160008152602001600081525090565b828054612ba090613617565b90600052602060002090601f016020900481019282612bc25760008555612c09565b82601f10612bdb57805160ff1916838001178555612c09565b82800160010185558215612c09579182015b82811115612c08578251825591602001919060010190612bed565b5b509050612c169190612c1a565b5090565b5b80821115612c33576000816000905550600101612c1b565b5090565b6000604051905090565b600080fd5b600080fd5b60007fffffffff0000000000000000000000000000000000000000000000000000000082169050919050565b612c8081612c4b565b8114612c8b57600080fd5b50565b600081359050612c9d81612c77565b92915050565b600060208284031215612cb957612cb8612c41565b5b6000612cc784828501612c8e565b91505092915050565b60008115159050919050565b612ce581612cd0565b82525050565b6000602082019050612d006000830184612cdc565b92915050565b600081519050919050565b600082825260208201905092915050565b60005b83811015612d40578082015181840152602081019050612d25565b83811115612d4f576000848401525b50505050565b6000601f19601f8301169050919050565b6000612d7182612d06565b612d7b8185612d11565b9350612d8b818560208601612d22565b612d9481612d55565b840191505092915050565b6000819050919050565b612db281612d9f565b82525050565b600060a0830160008301518482036000860152612dd58282612d66565b91505060208301518482036020860152612def8282612d66565b9150506040830151612e046040860182612da9565b506060830151612e176060860182612da9565b506080830151612e2a6080860182612da9565b508091505092915050565b60006020820190508181036000830152612e4f8184612db8565b905092915050565b600082825260208201905092915050565b6000612e7382612d06565b612e7d8185612e57565b9350612e8d818560208601612d22565b612e9681612d55565b840191505092915050565b60006020820190508181036000830152612ebb8184612e68565b905092915050565b612ecc81612d9f565b8114612ed757600080fd5b50565b600081359050612ee981612ec3565b92915050565b600060208284031215612f0557612f04612c41565b5b6000612f1384828501612eda565b91505092915050565b600073ffffffffffffffffffffffffffffffffffffffff82169050919050565b6000612f4782612f1c565b9050919050565b612f5781612f3c565b82525050565b6000602082019050612f726000830184612f4e565b92915050565b612f8181612f3c565b8114612f8c57600080fd5b50565b600081359050612f9e81612f78565b92915050565b60008060408385031215612fbb57612fba612c41565b5b6000612fc985828601612f8f565b9250506020612fda85828601612eda565b9150509250929050565b600080600060608486031215612ffd57612ffc612c41565b5b600061300b86828701612f8f565b935050602061301c86828701612f8f565b925050604061302d86828701612eda565b9150509250925092565b60006020828403121561304d5761304c612c41565b5b600061305b84828501612f8f565b91505092915050565b61306d81612d9f565b82525050565b60006020820190506130886000830184613064565b92915050565b600060c0820190506130a36000830189613064565b81810360208301526130b58188612e68565b905081810360408301526130c98187612e68565b90506130d86060830186613064565b6130e56080830185613064565b6130f260a0830184613064565b979650505050505050565b61310681612cd0565b811461311157600080fd5b50565b600081359050613123816130fd565b92915050565b600080604083850312156131405761313f612c41565b5b600061314e85828601612f8f565b925050602061315f85828601613114565b9150509250929050565b600060a08201905081810360008301526131838188612e68565b905081810360208301526131978187612e68565b90506131a66040830186613064565b6131b36060830185613064565b6131c06080830184613064565b9695505050505050565b600080fd5b600080fd5b7f4e487b7100000000000000000000000000000000000000000000000000000000600052604160045260246000fd5b61320c82612d55565b810181811067ffffffffffffffff8211171561322b5761322a6131d4565b5b80604052505050565b600061323e612c37565b905061324a8282613203565b919050565b600067ffffffffffffffff82111561326a576132696131d4565b5b61327382612d55565b9050602081019050919050565b82818337600083830152505050565b60006132a261329d8461324f565b613234565b9050828152602081018484840111156132be576132bd6131cf565b5b6132c9848285613280565b509392505050565b600082601f8301126132e6576132e56131ca565b5b81356132f684826020860161328f565b91505092915050565b6000806000806080858703121561331957613318612c41565b5b600061332787828801612f8f565b945050602061333887828801612f8f565b935050604061334987828801612eda565b925050606085013567ffffffffffffffff81111561336a57613369612c46565b5b613376878288016132d1565b91505092959194509250565b600081519050919050565b600082825260208201905092915050565b6000819050602082019050919050565b600060c0830160008301516133c66000860182612da9565b50602083015184820360208601526133de8282612d66565b915050604083015184820360408601526133f88282612d66565b915050606083015161340d6060860182612da9565b5060808301516134206080860182612da9565b5060a083015161343360a0860182612da9565b508091505092915050565b600061344a83836133ae565b905092915050565b6000602082019050919050565b600061346a82613382565b613474818561338d565b9350836020820285016134868561339e565b8060005b858110156134c257848403895281516134a3858261343e565b94506134ae83613452565b925060208a0199505060018101905061348a565b50829750879550505050505092915050565b600060208201905081810360008301526134ee818461345f565b905092915050565b600060c08301600083015161350e6000860182612da9565b50602083015184820360208601526135268282612d66565b915050604083015184820360408601526135408282612d66565b91505060608301516135556060860182612da9565b5060808301516135686080860182612da9565b5060a083015161357b60a0860182612da9565b508091505092915050565b600060208201905081810360008301526135a081846134f6565b905092915050565b600080604083850312156135bf576135be612c41565b5b60006135cd85828601612f8f565b92505060206135de85828601612f8f565b9150509250929050565b7f4e487b7100000000000000000000000000000000000000000000000000000000600052602260045260246000fd5b6000600282049050600182168061362f57607f821691505b60208210811415613643576136426135e8565b5b50919050565b7f4552433732313a20617070726f76616c20746f2063757272656e74206f776e6560008201527f7200000000000000000000000000000000000000000000000000000000000000602082015250565b60006136a5602183612e57565b91506136b082613649565b604082019050919050565b600060208201905081810360008301526136d481613698565b9050919050565b7f4552433732313a20617070726f76652063616c6c6572206973206e6f7420746f60008201527f6b656e206f776e6572206e6f7220617070726f76656420666f7220616c6c0000602082015250565b6000613737603e83612e57565b9150613742826136db565b604082019050919050565b600060208201905081810360008301526137668161372a565b9050919050565b7f4552433732313a2063616c6c6572206973206e6f7420746f6b656e206f776e6560008201527f72206e6f7220617070726f766564000000000000000000000000000000000000602082015250565b60006137c9602e83612e57565b91506137d48261376d565b604082019050919050565b600060208201905081810360008301526137f8816137bc565b9050919050565b7f4552433732313a20696e76616c696420746f6b656e2049440000000000000000600082015250565b6000613835601883612e57565b9150613840826137ff565b602082019050919050565b6000602082019050818103600083015261386481613828565b9050919050565b7f4552433732313a2061646472657373207a65726f206973206e6f74206120766160008201527f6c6964206f776e65720000000000000000000000000000000000000000000000602082015250565b60006138c7602983612e57565b91506138d28261386b565b604082019050919050565b600060208201905081810360008301526138f6816138ba565b9050919050565b600081905092915050565b7f7b226e616d65223a202200000000000000000000000000000000000000000000600082015250565b600061393e600a836138fd565b915061394982613908565b600a82019050919050565b600061395f82612d06565b61396981856138fd565b9350613979818560208601612d22565b80840191505092915050565b7f202d2d204e465420233a20000000000000000000000000000000000000000000600082015250565b60006139bb600b836138fd565b91506139c682613985565b600b82019050919050565b7f222c20226465736372697074696f6e223a20225468697320697320616e204e4660008201527f542074686174206c6574732070656f706c6520706c617920696e20746865206760208201527f616d652044425a20426174746c6520537461727321222c2022696d616765223a60408201527f2022000000000000000000000000000000000000000000000000000000000000606082015250565b6000613a796062836138fd565b9150613a84826139d1565b606282019050919050565b7f222c202261747472696275746573223a205b207b202274726169745f7479706560008201527f223a20224865616c746820506f696e7473222c202276616c7565223a00000000602082015250565b6000613aeb603c836138fd565b9150613af682613a8f565b603c82019050919050565b7f2c20226d61785f76616c7565223a000000000000000000000000000000000000600082015250565b6000613b37600e836138fd565b9150613b4282613b01565b600e82019050919050565b7f7d2c207b202274726169745f74797065223a202241747461636b2044616d616760008201527f65222c202276616c7565223a0000000000000000000000000000000000000000602082015250565b6000613ba9602c836138fd565b9150613bb482613b4d565b602c82019050919050565b7f7d205d7d00000000000000000000000000000000000000000000000000000000600082015250565b6000613bf56004836138fd565b9150613c0082613bbf565b600482019050919050565b6000613c1682613931565b9150613c228289613954565b9150613c2d826139ae565b9150613c398288613954565b9150613c4482613a6c565b9150613c508287613954565b9150613c5b82613ade565b9150613c678286613954565b9150613c7282613b2a565b9150613c7e8285613954565b9150613c8982613b9c565b9150613c958284613954565b9150613ca082613be8565b9150819050979650505050505050565b7f646174613a6170706c69636174696f6e2f6a736f6e3b6261736536342c000000600082015250565b6000613ce6601d836138fd565b9150613cf182613cb0565b601d82019050919050565b6000613d0782613cd9565b9150613d138284613954565b915081905092915050565b7f4572726f723a20636861726163746572206d757374206861766520485020746f60008201527f2061747461636b20626f73732e00000000000000000000000000000000000000602082015250565b6000613d7a602d83612e57565b9150613d8582613d1e565b604082019050919050565b60006020820190508181036000830152613da981613d6d565b9050919050565b7f4572726f723a20626f7373206d757374206861766520485020746f206174746160008201527f636b206368617261637465722e00000000000000000000000000000000000000602082015250565b6000613e0c602d83612e57565b9150613e1782613db0565b604082019050919050565b60006020820190508181036000830152613e3b81613dff565b9050919050565b7f4e487b7100000000000000000000000000000000000000000000000000000000600052601160045260246000fd5b6000613e7c82612d9f565b9150613e8783612d9f565b925082821015613e9a57613e99613e42565b5b828203905092915050565b6000606082019050613eba6000830186612f4e565b613ec76020830185613064565b613ed46040830184613064565b949350505050565b7f4e487b7100000000000000000000000000000000000000000000000000000000600052603260045260246000fd5b60006080820190508181036000830152613f258187612e68565b90508181036020830152613f398186612e68565b9050613f486040830185613064565b8181036060830152613f5a8184612e68565b905095945050505050565b7f4552433732313a207472616e736665722066726f6d20696e636f72726563742060008201527f6f776e6572000000000000000000000000000000000000000000000000000000602082015250565b6000613fc1602583612e57565b9150613fcc82613f65565b604082019050919050565b60006020820190508181036000830152613ff081613fb4565b9050919050565b7f4552433732313a207472616e7366657220746f20746865207a65726f2061646460008201527f7265737300000000000000000000000000000000000000000000000000000000602082015250565b6000614053602483612e57565b915061405e82613ff7565b604082019050919050565b6000602082019050818103600083015261408281614046565b9050919050565b600061409482612d9f565b915061409f83612d9f565b9250827fffffffffffffffffffffffffffffffffffffffffffffffffffffffffffffffff038211156140d4576140d3613e42565b5b828201905092915050565b7f4552433732313a20617070726f766520746f2063616c6c657200000000000000600082015250565b6000614115601983612e57565b9150614120826140df565b602082019050919050565b6000602082019050818103600083015261414481614108565b9050919050565b7f4552433732313a207472616e7366657220746f206e6f6e20455243373231526560008201527f63656976657220696d706c656d656e7465720000000000000000000000000000602082015250565b60006141a7603283612e57565b91506141b28261414b565b604082019050919050565b600060208201905081810360008301526141d68161419a565b9050919050565b60006141e882612d9f565b91507fffffffffffffffffffffffffffffffffffffffffffffffffffffffffffffffff82141561421b5761421a613e42565b5b600182019050919050565b7f4e487b7100000000000000000000000000000000000000000000000000000000600052601260045260246000fd5b600061426082612d9f565b915061426b83612d9f565b92508261427b5761427a614226565b5b828204905092915050565b600061429182612d9f565b915061429c83612d9f565b9250826142ac576142ab614226565b5b828206905092915050565b60006142c282612d9f565b91506142cd83612d9f565b9250817fffffffffffffffffffffffffffffffffffffffffffffffffffffffffffffffff048311821515161561430657614305613e42565b5b828202905092915050565b6000608082019050818103600083015261432b8187612e68565b9050818103602083015261433f8186612e68565b905061434e6040830185613064565b61435b6060830184613064565b95945050505050565b6000604082019050818103600083015261437e8185612e68565b905061438d6020830184613064565b9392505050565b600060608201905081810360008301526143ae8186612e68565b90506143bd6020830185613064565b6143ca6040830184613064565b949350505050565b600081519050919050565b600082825260208201905092915050565b60006143f9826143d2565b61440381856143dd565b9350614413818560208601612d22565b61441c81612d55565b840191505092915050565b600060808201905061443c6000830187612f4e565b6144496020830186612f4e565b6144566040830185613064565b818103606083015261446881846143ee565b905095945050505050565b60008151905061448281612c77565b92915050565b60006020828403121561449e5761449d612c41565b5b60006144ac84828501614473565b91505092915050565b7f4552433732313a206d696e7420746f20746865207a65726f2061646472657373600082015250565b60006144eb602083612e57565b91506144f6826144b5565b602082019050919050565b6000602082019050818103600083015261451a816144de565b9050919050565b7f4552433732313a20746f6b656e20616c7265616479206d696e74656400000000600082015250565b6000614557601c83612e57565b915061456282614521565b602082019050919050565b600060208201905081810360008301526145868161454a565b905091905056fe506c617965722061747461636b656420626f73732e204e657720626f73732068703a2025734142434445464748494a4b4c4d4e4f505152535455565758595a6162636465666768696a6b6c6d6e6f707172737475767778797a303132333435363738392b2f426f73732061747461636b656420706c617965722e204e657720706c617965722068703a2025730a4d696e746564204e465420772f20746f6b656e496420257320616e6420636861726163746572496e6465782025730a506c6179657220772f206368617261637465722025732061626f757420746f2061747461636b2e2048617320257320485020616e64202573204144a26469706673582212206eda4075aa459d5af4491e9518ad8bad3b0f12c4cd5e7b4a3a1b5dffac57e74e64736f6c634300080a0033446f6e6520696e697469616c697a696e6720257320772f2048502025732c20696d67202573446f6e6520696e697469616c697a696e6720626f737320257320772f2048502025732c20696d67202573",
    "linkReferences": {},
    "deployedLinkReferences": {}
}